:020000040800F2
:1000000018070020650100086D0100086F01000855
:1000100000000000000000000000000000000000E0
:100020000000000000000000000000007101000856
:1000300000000000000000007301000875010008C6
:1000400077010008770100087701000877010008B0
:1000500077010008770100087701000877010008A0
:100060007701000877010008770100087701000890
:100070006503000877010008770100087701000890
:10008000770100087701000877010008F9130008DC
:1000900077010008BD150008251C0008770100083D
:1000A0007701000877010008770100087701000850
:1000B00077010008770100080D0A000877010008A1
:1000C00000F002F800F03EF80CA030C80838241800
:1000D0002D18A246671EAB4654465D46AC4201D180
:1000E00000F030F87E460F3E0FCCB6460126334274
:1000F00000D0FB1AA246AB4633431847381E000017
:10010000581E0000103A02D378C878C1FAD85207B6
:1001100001D330C830C101D504680C6070470000BD
:100120000023002400250026103A01D378C1FBD813
:10013000520700D330C100D50B6070471FB51FBDFB
:1001400010B510BD00F0DAF81146FFF7F7FF01F027
:100150008BFE00F0F2F803B4FFF7F2FF03BC00F0EF
:10016000F9F800000748804707480047FEE7FEE728
:10017000FEE7FEE7FEE7FEE704480549054A064BB1
:100180007047000099130008C10000081801002002
:10019000180700201803002018030020002203097C
:1001A0008B422CD3030A8B4211D300239C464EE092
:1001B00003460B433CD4002243088B4231D303094E
:1001C0008B421CD3030A8B4201D394463FE0C30900
:1001D0008B4201D3CB01C01A524183098B4201D318
:1001E0008B01C01A524143098B4201D34B01C01A03
:1001F000524103098B4201D30B01C01A5241C3087B
:100200008B4201D3CB00C01A524183088B4201D3E9
:100210008B00C01A524143088B4201D34B00C01AD5
:100220005241411A00D201465241104670475DE0EA
:10023000CA0F00D04942031000D34042534000226D
:100240009C4603098B422DD3030A8B4212D3FC2216
:10025000890112BA030A8B420CD3890192118B4295
:1002600008D3890192118B4204D389013AD09211AB
:1002700000E08909C3098B4201D3CB01C01A524166
:1002800083098B4201D38B01C01A524143098B422F
:1002900001D34B01C01A524103098B4201D30B0118
:1002A000C01A5241C3088B4201D3CB00C01A52413D
:1002B00083088B4201D38B00C01A5241D9D2430824
:1002C0008B4201D34B00C01A5241411A00D2014661
:1002D000634652415B10104601D34042002B00D5CB
:1002E0004942704763465B1000D3404201B500208D
:1002F000C046C04602BD704770477047754600F063
:1003000025F8AE46050069465346C008C00085463C
:1003100018B020B5FFF730FF60BC00274908B6468B
:100320000026C0C5C0C5C0C5C0C5C0C5C0C5C0C504
:10033000C0C5403D49008D46704710B50446C046D3
:10034000C0462046FFF707FF10BD00000048704779
:10035000B400002001491820ABBEFEE726000200D1
:1003600070470000F8B5424C0421204600F0C2F866
:10037000002803D00421204600F089F83D48007889
:10038000002836D0A06A3A4B08273B4C4033002265
:10039000012836D002282CD138481D6841894919D6
:1003A00089B24181457A6D1CEDB24572042D20D190
:1003B00042728D0842810621415E8E00711A4919F0
:1003C000CD17AD0F6918891009B2C180855E491B30
:1003D0000425455F6943CD17AD0D691889120029C1
:1003E00000DA0021082900DD08211B68102B01D943
:1003F0000172F8BD2178002901D00772F8BD0272A0
:10040000F8BD1F481D684189491989B24181457A63
:100410006D1CEDB24572042DF2D142728D084281FD
:100420000621415E8E00711A4919CD17AD0F69186A
:10043000891009B2C1800025455F491B0425455F2D
:100440006943CD17AD0D69188912002900DA002122
:10045000082900DD08211B68102B01D90172F8BDA5
:100460002178002901D00772F8BD0272F8BD0000A2
:10047000002401400700002013000020520000204B
:100480005E000020836A0B43836242617047016013
:100490007047002904D081680122114381607047B0
:1004A0008168022211438160704700218268012324
:1004B000DB071A4382600F231B038268D20FD20727
:1004C000491C994201D0002AF7D18168002901DB3B
:1004D000006C70470020704702460020CB0104D515
:1004E000926801231B069A4300E012680A4200D07A
:1004F000012070470246002053680B4012680A42F0
:1005000002D0002B00D001207047002A03D042689F
:100510000A434260704742688A4342607047000065
:1005200030B5C268084B1A408C680B680D792343BC
:10053000CC686D032C4323430C69496923430B4367
:100540001343C36030BD000003D2FFFF8168042263
:100550001143816070470021016001718160C160B9
:100560000161416170470000F0B5012676028A1BE7
:10057000082410250423B14239D011DC202930D0C1
:1005800007DC012928D0042929D0082900D1C56019
:10059000F0BD402927D0FF390139F9D14360F0BDC2
:1005A0003F214902571A00268A4224D00ADCFF3A2A
:1005B000FF3A023A1DD0012189028A42EFD18661B9
:1005C0004360F0BD0121C903791A0ED00122120443
:1005D0009142F6D14560F0BD08498160F0BDC4602C
:1005E000F0BD0461F0BD0561F0BD4460F0BD436045
:1005F000F0BD4360F0BD86614360F0BD01010100C4
:1006000010B501214C06204600F044FD0021204693
:1006100000F040FD10BD000010B5827A012319469C
:1006200091402A4A14681C431460D3698B43D361F8
:10063000037B002B12D1D3688B43D360C3884488DB
:100640001B042343847AE400A41823648388048869
:100650001B042343847AE400A4186364037B012B06
:1006600012D1D3680B43D360038844881B0423430F
:10067000847AE400A41823648388C4881B04234379
:10068000847AE400A4186364C37A002B06D053680C
:100690000B4353600389002B04D006E053688B435F
:1006A0005360F7E753698B4353610389012B02D1F0
:1006B00053690B435361407B012802D1D069084341
:1006C000D061106840084000106010BD0066004016
:1006D00010B50246002053690B4212D0FF240134AA
:1006E0000B1BA1425AD018DC082943D00ADC01298F
:1006F00036D0022939D0042903D1D068082100F06E
:10070000E9F910BD10293AD020293DD04029F8D16F
:100710001069102100F0DEF910BD7F2109025C1A7A
:100720008B424AD00FDCFF3B013B3CD0FF3BFF3B01
:10073000023B3DD0012189028B42EDD190697021AD
:1007400000F0C8F910BD0121C903611A21D00123AD
:100750001B049942F6D15068102100F0BBF910BD7E
:100760009068184900F0B6F910BDD068032100F078
:10077000B1F910BDD068102100F0ACF910BD1069BE
:10078000032100F0A7F910BD1069082100F0A2F9BB
:1007900010BD5068082100F09DF910BD906901213D
:1007A00000F098F910BD9069022100F093F910BD96
:1007B0009069042100F08EF910BD5068042100F00A
:1007C00089F910BD0101010080694006400F000158
:1007D0007047002A03D042690A4342617047426968
:1007E0008A4342617047000010B50022036802246A
:1007F000A34303600368012423430360384B00E0F4
:10080000521C4468E40701D19A42F9D14268D207E8
:100810003ED08C798022012C3CD004689443046043
:10082000CC794022012C39D00468944304600C7ABE
:100830002022012C36D00468944304604C7A1022A4
:10084000012C33D00468944304608C7A0822012C74
:1008500030D0046894430460CC7A0422012C2DD05B
:100860000468944304608A78CC7892072406224373
:100870000C79240422434C79098824052243491E1B
:100880000A43C261016849084900016000211AE079
:10089000002010BD046814430460C1E704681443D9
:1008A0000460C4E7046814430460C7E704681443A1
:1008B0000460CAE7046814430460CDE70468144385
:1008C0000460D0E7491C4268D20701D09942F9D1AF
:1008D0004068C00701D0002010BD012010BD0000FD
:1008E000FFFFFF0030B50B011B18FF3381331C6B7A
:1008F00004252C401472002C2AD01C6BE408546090
:100900001C6B02252C4054725C6B2407240F9472DC
:100910005C6B240AD4749C6BD4729C6B240A147391
:100920009C6B240C54739C6B240E9473DC6BD473FB
:10093000DC6B240A1474DC6B240C5474DB6B1B0E0C
:1009400093742022002907D001691143016130BD51
:100950001C6B640D1460D3E7C1681143C16030BDE6
:1009600030B50246002093685B010AD4906800010C
:1009700001D5012005E09068C00001D5022000E00B
:100980000420042838D003019A18FF3281321368FA
:10099000DB07DB0F13600B7A002B2ED014684D6839
:1009A0001C434B7AED002B431C4314608B7A1B07CE
:1009B0001B0F8B7253681B091B01536053688C7AA1
:1009C000234353608C7BCB7A240623434C7B0D7BE3
:1009D00024042D022C43234393608C7CCB7B240680
:1009E00023434C7C097C240409020C432343D36039
:1009F000116801231943116030BD13684C7A2343F9
:100A00000C88640523431360D0E7000010B586B05E
:100A1000274C02212046FFF75BFE002821D002214F
:100A20002046FFF7A1FD234A0121117001AA0021F0
:100A30002046FFF757FF20480078002811D068466D
:100A4000C17D00290FD01D4801291FD0022908D1DE
:100A500069461B4A897C1170202925D2402100F06B
:100A600089F806B010BD6846C07C164A0102684687
:100A7000807C08431080144A1178CB06F1D5134BC3
:100A80009842EED2EF2001401170EAE76946104A21
:100A9000C97B1170952903D9802100F06BF8E0E73C
:100AA000802100F065F8DCE7402100F061F8D8E72C
:100AB00000640040090000200700002000040048F6
:100AC000100000200E000020170000201815000064
:100AD00011000020024600200A4200D00120704789
:100AE000F0B500220325012393400C681C409C4272
:100AF0002AD10C79012C01D0022C12D18768540024
:100B00002E46A640B74387604E79A64084682643A8
:100B1000866084889C43848084888B7993401C43BE
:100B20008480066853002C469C40A64306600E79DC
:100B300007689E403E430660C668A643C660CC79FF
:100B40009C40C3681C43C460521C102ACBD3F0BD28
:100B500010B54B07DB0E9A40C90889000818016AD6
:100B60000F249C40A1430162016A1143016210BD40
:100B7000018570478161704704490160002101715E
:100B8000012242718171C17170470000FFFF0000B6
:100B90000249014808607047CCCC0000003000409A
:100BA0000249014808607047AAAA000000300040CE
:100BB00001494860704700000030004001498860EA
:100BC0007047000000300040014908607047000095
:100BD0000030004010B51748FFF7BDFC1549102044
:100BE0000860154C2046FFF79BFC07220121204698
:100BF000FFF748FC2046FFF758FC0122042120465D
:100C0000FFF783FC0D490C2008700220487001207A
:100C10008870084600F0FAF901212046FFF739FCF8
:100C200001212046FFF758FC0028F9D02046FFF7A5
:100C30008DFC10BD80000020002401402400002015
:100C4000F8B54848FFF7DCFC4748002585710126C8
:100C5000C671067245728572C5728570C5700721AE
:100C60000171062141710C21018001463D48FFF7C9
:100C7000BBFD3E4CA572E5722673CF20C0012080DB
:100C8000700360803A4FA7801F20C002E08025815A
:100C900066732046FFF7C0FCA672E57226733548DE
:100CA0002080072000036080A7801F20C002E08012
:100CB000258166732046FFF7AFFC0220A072E57223
:100CC00026732C4820800F20C0026080A7801F2040
:100CD000C002E080258166732046FFF79DFC264C0C
:100CE00004272772254860600320A072E572EE2079
:100CF0002073657321461B48FFF732FE1948FFF742
:100D000063FD1F4801F036F827721E481E4900781F
:100D1000401860600820A0728020E07206202073D6
:100D20006573A5731120E073222020743320607452
:100D30004420A07421460B48FFF712FE0948FFF734
:100D400043FD7D20000101F015F801220221054834
:100D5000FFF73FFD0D481E2101704570867000F0C1
:100D600055F9F8BD0064004098000020A400002060
:100D7000FFFF0000F7C700006C000020FEFFEA182C
:100D8000A08601000100002000FFEE1824000020D2
:100D9000F8B53948FFF7F0FE374C0320207120608A
:100DA0000025657109202146C006FFF799FE2571CF
:100DB0003248206065710126E67109202146C0068F
:100DC000FFF78EFE362020602D4F21463846FFF774
:100DD00087FE2671A5712B4820606571E571092099
:100DE0002146C006FFF77CFE2748206021462748A1
:100DF000FFF776FE2648206021463846FFF770FE52
:100E00000420206021462348FFF76AFEA671402097
:100E1000206021463846FFF763FE02272771032032
:100E2000C00220606571E67109202146C006FFF707
:100E300057FE092004220B21C006FFF789FE092076
:100E400004220C21C006FFF783FE2771A67105203E
:100E5000400320606571E57121460C48FFF740FEB4
:100E600000220D210948FFF773FE00220F210748D9
:100E7000FFF76EFEF8BD00001C0000203C070000DC
:100E800000080048C0800000FF1400000004004873
:100E900080FF0000000C004810B5FFF779FE0848FD
:100EA000FFF792FE0320FFF783FE7D20C000FFF7CF
:100EB00085FE0448C1680029FCD1FFF771FE10BD12
:100EC000555500000030004070B501214C0420460B
:100ED00000F0C4F801218D04284600F0BFF801217C
:100EE000C80400F0BBF80121080500F0B7F80121A3
:100EF000022000F0C1F80121080200F0BDF8012134
:100F0000880300F0B9F80121480600F0B5F8012186
:100F1000480200F0CDF80121204600F0C9F8012177
:100F2000284600F0C5F870BD10B586B003208003D8
:100F30006A4690800F20000210810020508190812D
:100F400001214902D181102111825082FF200530F8
:100F5000D080074C01A9204600F096F901212046D7
:100F600000F07EF9A115204600F0B8F906B010BDDA
:100F70000038004070B5FF211F48E03101811E4854
:100F80001E4A2038C262828901242243828102885B
:100F9000224302801A4801817D221948D20020385C
:100FA000C2628289224382810288224302801548DC
:100FB0000181144864212038C162818921438181E3
:100FC000018821430180104D1520287002266E7083
:100FD000AC70284600F01AF8162028706C70AC70BF
:100FE000284600F013F8132028706E70AC70284665
:100FF00000F00CF870BD000020440140B80B000068
:1010000020480140202000402400002030B5827894
:1010100001240178002A16D08B080E4A9B009A18EA
:1010200013688907C90EFF258D40AB434578AD078E
:101030002D0E8D401D4315600078C006C00E844003
:101040000548046030BDC806C00E844002488030A8
:10105000046030BD00E400E000E100E0054A002942
:1010600003D0516901435161704751698143516116
:101070007047000000100240054A002903D0D169E2
:101080000143D1617047D1698143D161704700004C
:1010900000100240054A002903D011690143116183
:1010A00070471169814311617047000000100240D0
:1010B000054A002903D09169014391617047916904
:1010C000814391617047000000100240F8B504466A
:1010D00000215C4E70680C2210405B4D002820D02F
:1010E000042820D0082820D00C2839D0256070682A
:1010F000F02210400009554B1F5C20680246FA4060
:1011000094466260726807273F023A40120A9B5C6D
:101110006246DA40A260336BDB0524D44C4BE360BB
:1011200029E02560E3E72560E1E771680F2080048E
:10113000014070680322D20310408F0CBF1C0028AE
:101140000AD0F06A0107090F491C2846FFF726F864
:10115000784301462160CAE73E4839464143F9E7F2
:101160003D482060C3E773685B0402D45308E36022
:1011700001E09308E360336B5F06384B03D4374FCD
:101180001237276100E02361376BFF0601D46561E8
:1011900000E06061376BBF070ED0376BBF07BF0F32
:1011A000012F0BD0376BBF07BF0F022F08D0376B53
:1011B000FF43BF0706D006E0A26104E0A06102E0A1
:1011C000A36100E0A561376BBF03BF0F0FD0376B82
:1011D000BF03BF0F012F0CD0376BBF03BF0F022F10
:1011E00009D0376BBF03BF0F032F06D006E0E261C3
:1011F00004E0E06102E0E36100E0E561376B3F039A
:10120000BF0F0FD0326B1203920F012A0CD0306B3C
:101210000003800F022809D0306B0003800F0328E1
:1012200006D006E0226204E0206202E0236200E0D1
:101230002562306B000602D407486062F8BD616227
:10124000F8BD00000010024000127A0027000020C4
:10125000809FD50000093D00006CDC02008000008A
:101260004022002903D00188114301807047018882
:101270009143018070470246002012890A4200D043
:10128000012070478181704730B50388C1229201E7
:1012900013400A88CC890D892243CC882C432243F1
:1012A0004C8922438C8922431A4302808288094B4D
:1012B0001A408B88134383800A8A0282028804239F
:1012C0009A43498811430180818B034A11408183ED
:1012D00030BD0000FFF00000FFF70000064A914219
:1012E00005D00188FF220132114301807047018837
:1012F0001140018070470000FFFE00001CB5002374
:1013000001930093224801680122120411430160F5
:1013100051000524240302680A400092019A521CDD
:101320000192009A002A02D1019AA242F3D10168E7
:10133000890302D50121009100E000930099012961
:1013400025D1144911220A60416841604168416019
:1013500041687F22D203914341604168092212040F
:1013600011434160016801221206114301600168C6
:101370008901FCD5416889088900416041680222E1
:101380001143416041680907890F0229FAD11CBD48
:10139000001002400020024010B5144801680122EC
:1013A000114301604168124A114041600168114ACD
:1013B000114001600168012292049143016041687B
:1013C0003F22120491434160C16A09090901C162C7
:1013D000016BFF22543291430163416B490849007C
:1013E000416300218160FFF789FF10BD00100240BA
:1013F0000CB8FFF8FFFFF6FEF8B56748018A490808
:1014000049000182654D2878401CC0B22870082828
:1014100001D100202870624E2A78317861489142CB
:1014200003D80421FFF7A4FB02E00421FFF7A2FB8D
:10143000707829780127FF03884205D809203946AA
:10144000C006FFF795FB04E009203946C006FFF708
:1014500091FBB0782978884204D810215248FFF7D0
:1014600087FB03E010215048FFF784FBF0782978D0
:101470004E4C884204D839462046FFF779FB03E0FA
:1014800039462046FFF776FB30792978884205D81F
:1014900009208021C006FFF76BFB04E009208021B2
:1014A000C006FFF767FB70792978884204D80821C5
:1014B0003D48FFF75DFB03E008213B48FFF75AFB7F
:1014C000B0792A7801218902904203D82046FFF79B
:1014D0004FFB02E02046FFF74DFBF0792978884268
:1014E00004D820213048FFF743FB03E020212E4899
:1014F000FFF740FB307A2A7801218903904203D814
:101500002046FFF735FB02E02046FFF733FB707AF9
:101510002978884205D809204021C006FFF728FB1A
:1015200004E009204021C006FFF724FB2049287869
:101530000A7801214903904203D32046FFF718FBA4
:1015400002E02046FFF716FB00210022194E2D78FD
:101550000127B05CA84203D838469040814303E09D
:101560003B4693400B4399B2521C92B2102AF0D3DF
:10157000114D2846FFF786FE80212846FFF77BFEA7
:101580000128F9D040212046FFF7F4FA40212046F7
:10159000FFF7EEFAF8BD0000002000401600002022
:1015A00038000020000C00480004004800080048F3
:1015B000180000204200002000380040F8B5FD4827
:1015C000018A490849000182FB49FC4F087801263D
:1015D000401CC0B20870192804D100200870387867
:1015E00070403870F6490878401CC0B20870012875
:1015F00027D100200870F3490878020604D4002897
:101600000CD0401E087009E0401CC0B208700207F0
:10161000120F082A02D14006400E0870EA490878E5
:10162000020604D400280CD0401E087009E0401CBB
:10163000C0B208700207120F082A02D14006400EFD
:101640000870E24D2978C80701D120200143E04805
:101650000378002B0DD001203446224682400A42F6
:1016600003D1421D94400C43A1B2401C80B2052816
:10167000F2D33F78002F01D1102081430020D54CB8
:10168000324682400A4205D0225C082A07D2521C08
:10169000225404E0225C002A01D0521E2254401C35
:1016A00080B20A28ECD3CC49002B087804D0082853
:1016B00006D2401C087003E0002801D0401E0870CC
:1016C00000210022002B35D0C44C0820205684462F
:1016D00080B2BD4C2478002C01D02007000F644656
:1016E000002C07D1002F05D0012003E0012452086F
:1016F000E40312190446401E80B2002CF6D1B84C07
:1017000008202056844680B2AE4C2478002C01D0AC
:101710002007000F6446002C06D1002F04D00120C2
:1017200002E04900491C89B20446401E80B2002CE8
:10173000F7D111430020AB4C012282400A4205D070
:10174000225C082A07D2521C225404E0225C002AA0
:1017500001D0521E2254401C80B21028ECD3092024
:10176000C006048AA04844407320000104409F48FA
:10177000018A0F22514006221140008A0C43F021B9
:10178000484030210840800004439948264601889B
:101790004E400480974F600730D5002B2ED001219A
:1017A0009548FFF7E7F99548008800282AD088482F
:1017B0000078002826D09249924A700712D5924BA1
:1017C0001878012801D19148388000201870388895
:1017D000884201D2A03038803888884200D93980C8
:1017E0002A2010701078002802D0401E107009E0E6
:1017F0003888884206D21830388003E001217E48BC
:10180000FFF7B6F9E00631D57148007800282DD0F1
:1018100002217948FFF7AEF978480088002829D0DE
:101820006B480078002825D0794AF0060CD5774916
:101830003888A031884201D9A03838803888884259
:1018400000D239802A2010701078002802D0401E63
:1018500010700FE06D493888A031884201D91838DE
:1018600038803888884205D8398003E002216248F0
:10187000FFF77EF9200608D555480078002804D0E7
:1018800004215D48FFF776F903E004215A48FFF789
:101890006FF9700618D55F4960060BD55648FFF7FB
:1018A00069F95D49012008705C49002008705C49B5
:1018B000087009E05048FFF75BF9574900200870AD
:1018C0002878202108432870B0052BD5A00529D5FC
:1018D0003F4901220878504008701103002807D0C2
:1018E0004548FFF747F9287801210843287019E097
:1018F000454A012010704548A03038803E48FFF727
:1019000037F92878EC2108402870FF210131374849
:10191000FFF72EF940213848FFF72AF98021364891
:10192000FFF726F9F0051CD5E0051AD52848007800
:10193000002816D0287802214840287080070BD54F
:101940003149012008703148A0303880FF21013131
:101950002648FFF70FF904E0FF2101312348FFF784
:1019600007F9700519D5600517D52B4800780028B0
:1019700004D02A480178491C01700EE0287804211F
:1019800048402870400704D580211848FFF7F2F836
:1019900003E080211548FFF7EBF8B00750D5A0070A
:1019A0004ED51D48007800283CD01D480178491CC0
:1019B000017045E0004401401200002013000020A7
:1019C000080000200B0000200C0000201700002061
:1019D0000700002038000020180000205E000020D2
:1019E0005200002042000020FF07000000080048CD
:1019F0001400002002000020000400480E00002017
:101A0000504600001900002000000020E8120000ED
:101A10001A0000200004000006000020040000203E
:101A20000500002028780821484028706F490007E9
:101A300003D56F48FFF79EF802E06D48FFF798F86E
:101A4000B00610D5A0060ED56A48007800280AD046
:101A50002878102148402870C00604D56648012126
:101A6000017066483880287881067DD5DF210840DE
:101A700028706348634E01788025634C032907D0A2
:101A8000052925D06148062942D0072965D152E0B1
:101A90005F4F0620385E38800221795E814205D092
:101AA000091A3046FEF784FBB88000E0BE800022B1
:101AB00002212046FEF78DFE00F074F900F094F943
:101AC00054480570012202212046FEF782FE44E0C0
:101AD0004F4F0620385E78800021795E884205D01D
:101AE000411A3046FEF764FBB88000E0BE80002259
:101AF00002212046FEF76DFE00F054F900F074F963
:101B000044480570012202212046FEF762FE24E0CF
:101B100007210170002202212046FEF75AFE00F044
:101B200041F900F061F93B4805700122022120468D
:101B3000FEF74FFE11E02421017000220221204611
:101B4000FEF747FE00F02EF900F04EF9324805701E
:101B5000012202212046FEF73CFE3048007803288F
:101B600011D005282ED100E02CE02D4F0620385E44
:101B700078800021795E884225D0411A3046FEF7F0
:101B800017FBB88020E0264F0620385E38800221FF
:101B9000795E814205D0091A3046FEF709FBB8800C
:101BA00000E0BE80002202212046FEF712FE00F077
:101BB000F9F800F019F918490D70012202212046A8
:101BC000FEF707FEF8BDBE80002202212046FEF788
:101BD00000FE00F0E7F800F007F90F490D70012250
:101BE00002212046FEF7F5FDF8BD000000020000CE
:101BF00000080048070000200000002088130000B3
:101C000004000020F02300000064004001000020D8
:101C1000520000200B0000200C00002005000020D6
:101C20005E000020F8B54848018A49084900018251
:101C300046490878401CC0B20870454D7F2823D122
:101C4000444E307800281DD1287800281AD0092465
:101C5000E406208A404F400704D440213846FEF76E
:101C600087FF03E040213846FEF784FF208A000703
:101C700004D480213846FEF77BFF03E080213846FC
:101C8000FEF778FF00203070FEF78AFF2F780323DD
:101C90000426324932489B060825FF22314C002F8A
:101CA00033D0314F3F78002F15D00E720078C01816
:101CB00048608D72EC20C8720A734A738A731720C9
:101CC000C8730A744A748A742046FEF749FE204697
:101CD000FEF77AFD2FE00E720078C01848608D7212
:101CE000ED20C872214800880873000A48738A737F
:101CF0001720C8730A744A748A7418492046FEF77C
:101D00002FFE2046FEF760FD15E00E720078C01829
:101D100048608D72EC20C8720A734A738A73172068
:101D2000C8730A744A748A740C492046FEF718FE78
:101D30002046FEF749FD0E48816A03225140816228
:101D4000FEF704FCF8BD0000004801400A00002036
:101D50000700002009000020000400486C0000205B
:101D6000010000200064004000000020020000206C
:101D70000024014010B58CB0044601A8FFF7A6F975
:101D800007490298FEF70AFA60430B9002E00B98AD
:101D9000401E0B900B980028F9D10CB010BD00002C
:101DA00000093D0010B50E48C168C907FCD1C168E3
:101DB00020228906002900DAC26001690223194342
:101DC0000161084941610169402421430161C16801
:101DD000C907FCD1C26001699943016110BD0000CF
:101DE000002002400078000810B51B48C168C907F0
:101DF000FCD1C16820228906002900DAC26001698D
:101E0000012319430161154C154B21881980C168C4
:101E10008906FCD5C26061889980C1688906FCD5B5
:101E2000C2600E4C0C3421881981C1688906FCD52A
:101E3000C26061889981C1688906FCD5C260094980
:101E400049781982C1688906FCD5C26001694908D0
:101E50004900016110BD0000002002405200002036
:101E60000078000800000020FFF716F8294D2D200B
:101E700028802C460C342080962068804620608084
:101E8000254E242070702648244941602549416030
:101E900025490868421C00D028804868421C00D0B0
:101EA00068808868421C00D02080C868421C00D02E
:101EB00060800869411C00D0707002200021285EFB
:101EC000695E1A4F884205D0411A3846FEF770F90C
:101ED000A88000E0AF8002200021205E615E884281
:101EE00005D0411A3846FEF763F9A08000E0A780CC
:101EF000FEF7EAFFFEF74CFFFFF716F8FEF76AFE63
:101F0000FEF79EFEFFF736F809487080012030701A
:101F1000FEE700005200002000000020230167457A
:101F200000200240AB89EFCD00780008F0230000CC
:101F300088130000541F0008000000203800000033
:101F4000040100088C1F000838000020E006000093
:101F50002001000800000000000000000000000058
:101F60000000000000000000000000000000000071
:101F70000000000000000000000000000000000160
:0C1F800002030401020304060708090024
:040000050800016589
:00000001FF
